:030000000202C435
:0C02C400787FE4F6D8FD75811902030B69
:10038500010800010900010B00010E000112000126
:100395000A00010D00011100011500010C000110FA
:1003A50000011400011700010F00011300011600E0
:0303B5000118002C
:0403B9007F0A7E0039
:1003BD00E4FDFCC3ED9FEE6480F8EC64809850156D
:1003CD00E4FBFA0BBB00010ABA03F8BBE8F50DBD5F
:0503DD0000010C80DEB0
:0103E20022F8
:10000300E4F5087590FE8590195319F0E51964F02D
:1000130060491203B98590195319F0E51964F0602A
:100023003A859019E5192482601B24C0601224E0EC
:10003300600924F070147508118012750812800D80
:10004300750813800875081480037508FFE51964A3
:10005300F060088590195319F080F27590FD859032
:10006300195319F0E51964F060491203B985901921
:100073005319F0E51964F0603A859019E519248362
:10008300601B24C0601224E0600924F0701475081A
:10009300218012750822800D7508238008750824B5
:1000A30080037508FFE51964F060088590195319FA
:1000B300F080F27590FB8590195319F0E51964F0FF
:1000C30060491203B98590195319F0E51964F0607A
:1000D3003A859019E5192485601B24C0601224E039
:1000E300600924F070147508318012750832800D90
:1000F300750833800875083480037508FFE51964B3
:10010300F060088590195319F080F27590F7859087
:10011300195319F0E51964F060491203B985901970
:100123005319F0E51964F0603A859019E5192489AB
:10013300601B24C0601224E0600924F07014750869
:10014300418012750842800D750843800875084484
:1001530080037508FFE51964F06008859019531949
:03016300F080F237
:010166002276
:10016700E4F509F50BF50EF512F50AF50DF511F5A0
:1001770015F50CF510F514F517F50FF513F516F53C
:10018700187590FEAF905307F0EF64F0603F1203CD
:10019700B9AF905307F0EF64F06032AF905307F0B8
:1001A700EF20E4057509018024EF20E505750B01B3
:1001B700801BEF20E605750E018012EF20E705751D
:1001C70012018009E4F509F50BF50EF5121203B9D2
:1001D7007590FDAF905307F0EF64F060417F0A120E
:1001E70003BDAF905307F0EF64F06032AF90530751
:1001F700F0EF20E405750A018024EF20E505750D71
:1002070001801BEF20E6057511018012EF20E7053D
:100217007515018009E4F50AF50DF511F5151203B9
:10022700B97590FBAF905307F0EF64F060417F0A18
:100237001203BDAF905307F0EF64F06032AF9053F5
:1002470007F0EF20E405750C018024EF20E5057524
:100257001001801BEF20E6057514018012EF20E7DF
:10026700057517018009E4F50CF510F514F517125B
:1002770003B97590F7AF905307F0EF64F0603D7FD7
:100287000A1203BDAF905307F0EF64F0602EAF90F2
:100297005307F0EF20E404750F0122EF20E5047502
:1002A700130122EF20E60475160122EF20E70475FB
:0C02B700180122E4F50FF513F516F518F8
:0102C3002218
:1003E300E4FDFCC3ED9FEC9E5015E4FBFA0BBB0050
:0F03F300010ABA03F8BBE8F50DBD00010C80E468
:0104020022D7
:10035000D2A0120003E50824DE600E24EF600C2416
:10036000EF600A2433701A800480028000C2A07FEC
:10037000E87E031203E31203E31203E31203E380B4
:05038000CFD2A080CBEC
:1002D000020350E493A3F8E493A34003F68001F2F1
:1002E00008DFF48029E493A3F85407240CC8C3332F
:1002F000C4540F4420C8834004F456800146F6DFFE
:10030000E4800B0102040810204080900385E47E05
:10031000019360BCA3FF543F30E509541FFEE493F2
:10032000A360010ECF54C025E060A840B8E493A3B9
:10033000FAE493A3F8E493A3C8C582C8CAC583CAE4
:10034000F0A3C8C582C8CAC583CADFE9DEE780BE9C
:0103B8000044
:00000001FF
