:0300000002028475
:0C028400787FE4F6D8FD7581190202CBEA
:10035400010800010900010B00010E000112000157
:100364000A00010D00011100011500010C0001102B
:1003740000011400011700010F0001130001160011
:030384000118005D
:0403BA007F0A7E0038
:1003BE00E4FDFCC3ED9FEE6480F8EC64809850156C
:1003CE00E4FBFA0BBB00010ABA03F8BBE8F50DBD5E
:0503DE0000010C80DEAF
:0103E30022F7
:10000300E4F5087590FE8590195319F0E51964F02D
:1000130060491203BA8590195319F0E51964F06029
:100023003A859019E5192482601B24C0601224E0EC
:10003300600924F070147508118012750812800D80
:10004300750813800875081480037508FFE51964A3
:10005300F060088590195319F080F27590FD859032
:10006300195319F0E51964F060491203BA85901920
:100073005319F0E51964F0603A859019E519248362
:10008300601B24C0601224E0600924F0701475081A
:10009300218012750822800D7508238008750824B5
:1000A30080037508FFE51964F060088590195319FA
:1000B300F080F27590FB8590195319F0E51964F0FF
:1000C30060491203BA8590195319F0E51964F06079
:1000D3003A859019E5192485601B24C0601224E039
:1000E300600924F070147508318012750832800D90
:1000F300750833800875083480037508FFE51964B3
:10010300F060088590195319F080F27590F7859087
:10011300195319F0E51964F060491203BA8590196F
:100123005319F0E51964F0603A859019E5192489AB
:10013300601B24C0601224E0600924F07014750869
:10014300418012750842800D750843800875084484
:1001530080037508FFE51964F06008859019531949
:03016300F080F237
:010166002276
:10016700E4F509F50BF50EF512F50AF50DF511F5A0
:1001770015F50CF510F514F517F50FF513F516F53C
:10018700187590FEAF905307F0EF64F0602E1203DE
:10019700BAAF905307F0EF64F06021AF905307F0C8
:1001A700EF20E403750901EF20E503750B01EF204C
:1001B700E603750E01EF20E7037512011203BA7506
:1001C70090FDAF905307F0EF64F060307F0A1203A1
:1001D700BEAF905307F0EF64F06021AF905307F084
:1001E700EF20E403750A01EF20E503750D01EF2009
:1001F700E603751101EF20E7037515011203BA75C0
:1002070090FBAF905307F0EF64F060307F0A120362
:10021700BEAF905307F0EF64F06021AF905307F043
:10022700EF20E403750C01EF20E503751001EF20C3
:10023700E603751401EF20E7037517011203BA757A
:1002470090F7AF905307F0EF64F060307F0A120326
:10025700BEAF905307F0EF64F06021AF905307F003
:10026700EF20E403750F01EF20E503751301EF207D
:0C027700E603751601EF20E7037518017F
:010283002258
:10038800C2A07FE87E0312039A12039A12039A12FC
:02039800039AC6
:10039A00E4FDFCC3ED9FEC9E5015E4FBFA0BBB0099
:0F03AA00010ABA03F8BBE8F50DBD00010C80E4B1
:0103B9002221
:10031000D2A0120167E50EB40105120388D2A0E550
:100320000964017010E50B6401700AE50DB4010564
:10033000120388D2A0E50C64017010E5136401700B
:100340000AE514B40105120388D2A07F147E0012BE
:04035000039A80BCD0
:10029000020310E493A3F8E493A34003F68001F271
:1002A00008DFF48029E493A3F85407240CC8C3336F
:1002B000C4540F4420C8834004F456800146F6DF3E
:1002C000E4800B0102040810204080900354E47E77
:1002D000019360BCA3FF543F30E509541FFEE49333
:1002E000A360010ECF54C025E060A840B8E493A3FA
:1002F000FAE493A3F8E493A3C8C582C8CAC583CA25
:10030000F0A3C8C582C8CAC583CADFE9DEE780BEDC
:010387000075
:00000001FF
