:0300000002027A7F
:0C027A00787FE4F6D8FD75810F0202C108
:0F052F0074656D70657261747572653A002E00A7
:04054800020E00009F
:03054D00DFFE22AC
:1004E700AE07AF061EEF600C7FF512054D7FF512C4
:0504F700054D80EE221E
:10051F007580FFC2A5D2A6C2A700D2A7E58033225D
:0C04B0007F381204BC7F051204E77F387F
:1004BC0012051F40FBC2A5C2A6D2A78F8000C2A7FF
:0104CC00220D
:10050E0012051F40FBD2A5C2A6D2A78F8000C2A79C
:01051E0022BA
:0A053E007F011204BC7F050204E7F0
:10042B00AE07ED7005EE24808003EE24C0FF1204AE
:10043B00BC1201C8FF600C12050E740129F9E43AD5
:04044B00FA80EE2223
:040306008F088D09C6
:10030A00E4FC7D0AAF03AE021201E17C007D0A1211
:10031A0001E1ED2430F50BE43CF50AAE02AF037CB3
:10032A00007D0A1201E1ED2430F50DE43CF50CE400
:10033A00FCFDE5097006E50824808004E50824C070
:10034A002DFF1204BCED25E0240AF808E6FF120589
:0C035A000E0DBD00010CED64024C70D6CD
:010366002274
:10044F001204B07F051204E71204B07F081204BC37
:10045F007F011204BC7F061204BC1F1204E77F0C3D
:03046F000204BCC8
:0704FC001204CD7FE87E032E
:0B050300EF1FAC0670011E4C70F622CA
:10040300E4FDD2A07F50FE120503C2A07F207E032D
:10041300120503D2A07F8C7E00120503A2A0E43351
:08042300FD7FC87E0002050305
:10049200E4FB7D08C2A0EBC313FBD2A030A0034350
:0D04A20003807F287E00120503DDE9AF0313
:0104AF00222A
:0204CD00AD0779
:1004CF007B08C2A0ED1392A07F327E00120503D2EB
:0704DF00A0EDC313FDDBEBF0
:0104E60022F3
:1003BE00E4FAFFFDFC1204037FCC1204CD7F44123D
:1003CE0004FC1204037FCC1204CD7FBE1204FC1277
:1003DE000492AA07120492EFFCEAFDAE04AF05ECFC
:1003EE0012010EE4FBFA7920783F12000312014746
:0403FE008E0E8F0FC1
:0104020022D7
:10047200E4FDFCC3ED9FEC9E5015E4FBFA0BBB00C0
:0F048200010ABA03F8BBE8F50DBD00010C80E4D8
:010491002248
:1003670012044F12053E1203BE7BFF7A05792FE474
:10037700FDFF12042BAE0EAF0F7C007D0A1201E1C8
:10038700AA06AB077D017F04120306AE0EAF0F7CF2
:10039700007D0A1201E1AA04AB057D017F07120364
:1003A700067BFF7A05793C7D017F0612042B7FE8E7
:0703B7007E0312047280AC0A
:10000300EC4D6011E8497017ED33EC3304600DE4F7
:10001300FCFFFEFD22E933E8330470F80201B3125A
:10002300017E58046009E4CC24815006285009025B
:1000330001BD2840030201BAC0E0EB4A7044B98015
:1000430006D0E0FB0201A9EF4E701CBD8008EBFF58
:10005300EAFEE9FD80EBE98DF0A4FEE5F00200EC99
:10006300E9CDF9EAFEEBFFEF89F0A4FCE5F0CE89D8
:10007300F0A42EFFE435F0CD89F0A42DFEE435F095
:100083008067EF4E7005BD80D780C3EF8BF0A4ACC3
:10009300F0EE8BF0A42CFCE435F0F8EF8AF0A42CFE
:1000A300E5F038FCE433CB8DF0A42CFCE5F03BF811
:1000B300EE8AF0A42CFCE5F038F8E433CF89F0A401
:1000C3002CFCE5F038CF3400CE89F0A42FFFE5F007
:1000D3003EFEE433C98DF0A42EFEE5F039CD8AF05F
:1000E300A42FFFE5F03EFEE43DFD33D0E0FB5007D7
:1000F3000BBB000F0201BDEC2CFCEF33FFEE33FE14
:06010300ED33FD02019541
:1001090075F020800E75F010800575F0087D007E71
:10011900007F003392D530D503120217EC3340101B
:10012900EF33FFEE33FEED33FDEC33FCD5F0ED227A
:0E013900E5F0247EA2D513CC92E7CDCEFF22B6
:10014700EDD2E7CD33EC3392D524814006E4FFFEB0
:10015700FDFC22FCE4CFCECDCC24E0501174FF800F
:10016700EDC3CC13CCCD13CDCE13CECF13CF0470AC
:07017700F030D5DE02021793
:10017E00E9D2E7C933E833F892D5EDD2E7CD33ECC7
:07018E0033FC5002B2D52240
:10019500EC30E7100FBF000C0EBE00080DBD0004CB
:1001A5000BEB6014A2D5EB13FCED92E7FD2274FF77
:1001B500FCFDFEFF22E480F8A2D574FF13FC7D80D0
:0301C500E480EFE4
:10028600020367E493A3F8E493A34003F68001F224
:1002960008DFF48029E493A3F85407240CC8C33379
:1002A600C4540F4420C8834004F456800146F6DF48
:1002B600E4800B0102040810204080900548E47E8B
:1002C600019360BCA3FF543F30E509541FFEE4933D
:1002D600A360010ECF54C025E060A840B8E493A304
:1002E600FAE493A3F8E493A3C8C582C8CAC583CA2F
:1002F600F0A3C8C582C8CAC583CADFE9DEE780BEE7
:01054C0000AE
:1001C800BB010689828A83E0225002E722BBFE0235
:0901D800E32289828A83E4932268
:1001E100C2D5EC30E709B2D5E4C39DFDE49CFCEE39
:1001F10030E715B2D5E4C39FFFE49EFE120225C38A
:10020100E49DFDE49CFC800312022530D507C3E484
:060211009FFFE49EFE22A7
:0E021700C3E49FFFE49EFEE49DFDE49CFC22F8
:10022500BC000BBE0029EF8DF084FFADF022E4CCBD
:10023500F875F008EF2FFFEE33FEEC33FCEE9DEC86
:10024500984005FCEE9DFE0FD5F0E9E4CEFD22EDCC
:10025500F8F5F0EE8420D21CFEADF075F008EF2F16
:10026500FFED33FD4007985006D5F0F222C398FD07
:050275000FD5F0EA22A4
:00000001FF
