:0300000002057B7B
:0C057B00787FE4F6D8FD7581220205C2ED
:10073C00B5E7D1B9A3BA0030200031200032200037
:10074C0033200034200035200036200037200038BC
:05075C0020003920001F
:04080C0002210000C5
:10045000EFB40800504790045DF828287302047533
:1004600002047A02047F02048402048902048E02D8
:100470000493020498759D018026759D0280217564
:100480009D04801C759D088017759D108012759DB8
:1004900020800D759D408008759D808003E4F59D4A
:1004A000E4F5BDF5BE43A204EF4488F5BC000000AE
:1004B00000E5BC30E4FBE4F5BCAFBDEFFEADBE7CB7
:1004C00000E42DF522EC3EF521FCAD22E41201AE54
:1004D0007B007A40799C7845120003E4FBFA79802E
:0D04E000784412010C1201E78E218F2222B8
:070800008F80120807D2A748
:050807000000000022CA
:0407A1007F017E0056
:0A07A500EF1FAC0670011E4C600F40
:0F07AF00E4F517E517C394FA50EC00051780F432
:0107BE002218
:1007ED00C2A5D2A6D2A7120807E580339200C2A7F0
:0207FD00A20058
:0107FF0022D7
:0407BF00EB2480FFA8
:1007C3001207ED40FBC2A5C2A6C2A7000012080093
:0307D300C2A72298
:10076100EF70047F808013BF01047F90800CBF0273
:10077100047F888005BF03027F98EF2DFF0207C326
:0607D60014F9120268FF95
:1007DC001207ED40FBD2A5C2A6C2A7120800C2A701
:0107EC0022EA
:1006EE008B148A1589161207618016AB14AA15A9E8
:1006FE001612026860100516E5167002051512072F
:07070E00D61207A180E522CD
:100607007F341207C3E4FB1207BF1207A17F8012D2
:1006170007C31207A1E4FDE4FF1207DC0F7E0012F7
:1006270007A50DBD10F10BBB20DDE4FB1207BF12C0
:1006370007A17F881207C31207A1E4FDE4FF120791
:10064700DC0F7E001207A50DBD10F10BBB20DD7F6F
:10065700361207C31207A17F301207C37F017E003E
:030667000207A5E2
:0604ED008B188A19891A20
:1004F3007F341207C31207A1E4FDED2480FF120726
:10050300C31207A17F801207C31207A1E4F51BAB37
:1005130018051AE51AAA19700205191207D6120747
:10052300A1051BE51BC3941040E50DBD20CCE4FDE4
:10053300ED2480FF1207C31207A17F881207C3129D
:1005430007A1E4F51BAB18051AE51AAA19700205F1
:10055300191207D61207A1051BE51BC3941040E52A
:100563000DBD20CC7F361207C31207A17F301207BF
:08057300C37F017E000207A511
:10066A00AA077F341207C31207A1EDC39420ED50E5
:10067A000E2480FF1207C31207A1EA2480800C24EB
:10068A0060FF1207C31207A1EA2488FF1207C312E8
:10069A0007A1AF031207DC1207A1AF1F1207DC1272
:1006AA0007A17F361207C31207A17F301207C37F43
:0606BA00017E000207A50D
:1006C0007F011207C37F057E001207A51206077F70
:1006D000057E001207A57F301207C37F057E00123A
:0E06E00007A57F021207C37F057E000207A553
:100715007F341207C37F057E001207A57F301207BD
:10072500C37F057E001207A57F0C1207C37F057ED8
:07073500001207A50206C037
:10078100E4FDFCC3ED9FEC9E5015E4FBFA0BBB00AE
:0F079100010ABA03F8BBE8F50DBD00010C80E4C6
:0107A0002236
:1002E400120715E4FF120450AE21AF227C007D0AF0
:1002F4001202818C108D11AE21AF227C007D0A1276
:1003040002817C007D0A1202818C0E8D0FAE21AF1A
:10031400227C007D641202817C007D0A1202818CA1
:100324000C8D0DAE21AF227C037DE81202817C008E
:100334007D0A1202818C0A8D0BAE21AF227C277DAF
:10034400101202817C007D0A1202818C088D091230
:1003540006C07BFF7A07793CE4FDFF1206EEE4F564
:1003640012F513AF13EF25E02408F8E6FC08E6FDC8
:10037400EC6003020420EDB40A0040030204209060
:10038400038AF82828730203A80203AB0203B80205
:1003940003C50203D20203DF0203EC0203F90204E1
:1003A40006020413EF8077E5132403FD7BFF7A072D
:1003B40079468073E5132403FD7BFF7A077949802E
:1003C40066E5132403FD7BFF7A07794C8059E51316
:1003D4002403FD7BFF7A07794F804CE5132403FD4A
:1003E4007BFF7A077952803FE5132403FD7BFF7A74
:1003F4000779558032E5132403FD7BFF7A0779588A
:100404008025E5132403FD7BFF7A07795B8018E5DB
:10041400132403FD7BFF7A07795E800BE513240325
:10042400FD7BFF7A077943E4FF1206EE0513E5131B
:1004340070020512C39405E512648094805003028F
:0C04440003677FD07E071207810202E7E9
:10000300EC4D6011E8497017ED33EC3304600DE4F7
:10001300FCFFFEFD22E933E8330470F802025312B9
:10002300021E58046009E4CC2481500628500902BA
:10003300025D28400302025AC0E0EB4A7044B980D3
:1000430006D0E0FB020249EF4E701CBD8008EBFFB7
:10005300EAFEE9FD80EBE98DF0A4FEE5F00200EC99
:10006300E9CDF9EAFEEBFFEF89F0A4FCE5F0CE89D8
:10007300F0A42EFFE435F0CD89F0A42DFEE435F095
:100083008067EF4E7005BD80D780C3EF8BF0A4ACC3
:10009300F0EE8BF0A42CFCE435F0F8EF8AF0A42CFE
:1000A300E5F038FCE433CB8DF0A42CFCE5F03BF811
:1000B300EE8AF0A42CFCE5F038F8E433CF89F0A401
:1000C3002CFCE5F038CF3400CE89F0A42FFFE5F007
:1000D3003EFEE433C98DF0A42EFEE5F039CD8AF05F
:1000E300A42FFFE5F03EFEE43DFD33D0E0FB5007D7
:1000F3000BBB000F02025DEC2CFCEF33FFEE33FE73
:06010300ED33FD020235A0
:1001090002025DEC5D046005E859047003020253C4
:1001190012021E580460F6EC4860F2EC7004FDFE11
:10012900FF22C860DB2481C85009C39860025006C9
:1001390002025A9850CAF582E9294B4A7005AB82E6
:1001490002024975F0007C1A7880C3EF9BEE9AEDA4
:1001590099400DC3EF9BFFEE9AFEED99FDE842F041
:10016900DC23ACF0D0E0FFD0E0FED0E0FDAB822094
:10017900E7101BEB60BAEC2CFCEF33FFEE33FEED1E
:1001890033FD020235E803F830E705C0F075F000E9
:10019900EF2FFFEE33FEED33FD40B830E7C280AA02
:1001A90075F020800E75F010800575F0087D007ED1
:1001B900007F003392D530D5031202D6EC334010BC
:1001C900EF33FFEE33FEED33FDEC33FCD5F0ED22DA
:0E01D900E5F0247EA2D513CC92E7CDCEFF2216
:1001E700EDD2E7CD33EC3392D524814006E4FFFE10
:1001F700FDFC22FCE4CFCECDCC24E0501174FF806F
:10020700EDC3CC13CCCD13CDCE13CECF13CF04700B
:07021700F030D5DE0202D633
:10021E00E9D2E7C933E833F892D5EDD2E7CD33EC26
:07022E0033FC5002B2D5229F
:10023500EC30E7100FBF000C0EBE00080DBD00042A
:100245000BEB6014A2D5EB13FCED92E7FD2274FFD6
:10025500FCFDFEFF22E480F8A2D574FF13FC7D802F
:03026500E480EF43
:100587000202E4E493A3F8E493A34003F68001F2A4
:1005970008DFF48029E493A3F85407240CC8C33375
:1005A700C4540F4420C8834004F456800146F6DF44
:1005B700E4800B010204081020408090080CE47EC0
:1005C700019360BCA3FF543F30E509541FFEE49339
:1005D700A360010ECF54C025E060A840B8E493A300
:1005E700FAE493A3F8E493A3C8C582C8CAC583CA2B
:1005F700F0A3C8C582C8CAC583CADFE9DEE780BEE3
:0108100000E7
:10026800BB010689828A83E0225002E722BBFE0294
:09027800E32289828A83E49322C7
:10028100BC000BBE0029EF8DF084FFADF022E4CC61
:10029100F875F008EF2FFFEE33FEEC33FCEE9DEC2A
:1002A100984005FCEE9DFE0FD5F0E9E4CEFD22ED70
:1002B100F8F5F0EE8420D21CFEADF075F008EF2FBA
:1002C100FFED33FD4007985006D5F0F222C398FDAB
:0502D1000FD5F0EA2248
:0E02D600C3E49FFFE49EFEE49DFDE49CFC2239
:00000001FF
