:030000000202F801
:0C02F800787FE4F6D8FD75810F02010844
:1002C800446174612069733A0037424D5855667726
:0102D800889D
:03032A00DFFE22D1
:10029000AE07AF061EEF600C7FF512032A7FF51242
:0502A000032A80EE229C
:1002D9007580FFC2A5D2A6C2A700D2A7E5803322A6
:0C0257007F381202637F051202907F388E
:100263001202D940FBC2A5C2A6D2A78F8000C2A7A3
:010273002268
:1002B7001202D940FBD2A5C2A6D2A78F8000C2A73F
:0102C7002214
:0A0304007F011202637F05020290E0
:1001AF00AE07ED7005EE24808003EE24C0FF12022F
:1001BF0063120003FF600C1202B7740129F9E43ACD
:0401CF00FA80EE22A2
:0400A7008F0A8D0B24
:1000AB00E4FC7D0AAF03AE0212001C7C007D0A1239
:1000BB00001CED2430F50DE43CF50CAE02AF037CD7
:1000CB00007D0A12001CED2430F50FE43CF50EE424
:1000DB00FCFDE50B7006E50A24808004E50A24C0CC
:1000EB002DFF120263ED25E0240CF808E6FF120247
:0C00FB00B70DBD00010CED64024C70D686
:0101070022D5
:1001D3001202577F051202901202577F0812026320
:1001E3007F011202637F061202631F1202907F0CCB
:0301F300020263A2
:05032200120327D29731
:03032700000022B1
:1002A500E4FDFCC3ED9FEC9E50070DBD00010C80E5
:0102B500F256
:0102B6002225
:0A030E00D297120327D296020327AC
:0F02E900D296120322C296120327C2970203274E
:0A031800C296120322D296020327B8
:10023900E4FEEF25E0FFC2971203279296120322EC
:0E0249000EBE08EEC297120327D296020327BC
:10016100E4FEC297120327D296FD120322309604B1
:100171007F018002E4FFEE25E04FFEC2970DBD082E
:06018100E9120327AF069E
:010187002255
:0B01F600120239120201AF051202399B
:10020100E4FFD297120327309609EFC394FF5003FE
:080211000F80F4C297020327DD
:02018800AD07C1
:10018A001202E97FA01201F61202E97FA1120239D6
:10019A00120201120161AB071203187F647E00127A
:0401AA0002A5AF03F8
:0101AE00222E
:10027400AC071202E97FA0120239120201AF041284
:0C02840001F61203187F887E130202A509
:10021900E4FDFCC3ED9FEC9E5015E4FBFA0BBB001B
:0F022900010ABA03F8BBE8F50DBD00010C80E433
:0102380022A3
:090108001201D312030412030ECC
:10011100E4F508F5091203047BFF7A0279C8E4FDCE
:10012100FF1201AFE50864086010E5089002D19361
:10013100FDAF08120274050880EAE4F508E50864D9
:100141000860CDAF081201888F09EFFB7A007D01AD
:100151007F041200A705087FE87E0312021980DDE3
:10000300BB010689828A83E0225002E722BBFE02FB
:09001300E32289828A83E493222E
:10001C00C2D5EC30E709B2D5E4C39DFDE49CFCEEFF
:10002C0030E715B2D5E4C39FFFE49EFE120052C325
:10003C00E49DFDE49CFC800312005230D507C3E420
:06004C009FFFE49EFE226E
:10005200BC000BBE0029EF8DF084FFADF022E4CC92
:10006200F875F008EF2FFFEE33FEEC33FCEE9DEC5B
:10007200984005FCEE9DFE0FD5F0E9E4CEFD22EDA1
:10008200F8F5F0EE8420D21CFEADF075F008EF2FEB
:10009200FFED33FD4007985006D5F0F222C398FDDC
:0500A2000FD5F0EA2279
:00000001FF
