:030000000200F902
:0C00F900787FE4F6D8FD758120020140FC
:0C02FA000011002200330044080808082E
:1002E6000B14004C0C44040411223344580410002F
:0302F60000000005
:1002B600AE071FEE6013E4FCFDC3ED9450EC940012
:0902C60050EE0DBD00010C80F0AA
:0102CF00220C
:10027A008F20E4FFE52030E704D2B78002C2B7D26C
:0D028A00A1E52025E0F520C2A10FBF08E787
:010297002244
:10029800E4FFE52025E0F520D2A130A205432001A6
:0D02A80080035320FEC2A10FBF08E7AF2066
:0102B5002226
:10023100D2A0C2A1C2B6C2A3C2B5D2B4C2A4C2B333
:100241007F011202B6C2A0E4FE74142EF8E6FF127A
:08025100027A0EBE0BF3D2A0ED
:010259002282
:060185008F088D098B0AB2
:10018B00780C7C007D007BFF7A0379027E007F0474
:10019B001200D385080C85090D850A0E850B0FC23D
:1001AB00A4D2B37F011202B6C2A07F2012027AE45E
:1001BB00FE740C2EF8E6FF12027A0EBE04F3D2A0E8
:1001CB007F011202B6C2A07F2212027AE4FEEE2554
:1001DB00E024FAF582E43402F583740193FF1202F2
:1001EB007A0EBE04E9D2A0D2A47F011202B6C2A439
:0101FB0022E1
:1001FC007F011202B6C2B3D2A47F641202B6C2A4AB
:10020C00C2A07F011202B67F2412027AE4FE12020F
:10021C009874102EF8A6070EBE04F3D2A07F0A1213
:04022C0002B6D2A4A0
:0102300022AB
:10025A00E4FDFCC3ED9FEC9E5015E4FBFA0BBB00DA
:0F026A00010ABA03F8BBE8F50DBD00010C80E4F2
:010279002262
:1002D000120231E4F50BFBFD7F111201857F0A7ECE
:0602E0000012025A80ED3D
:100105000202D0E493A3F8E493A34003F68001F23E
:1001150008DFF48029E493A3F85407240CC8C333FB
:10012500C4540F4420C8834004F456800146F6DFCA
:10013500E4800B01020408102040809002E6E47E72
:10014500019360BCA3FF543F30E509541FFEE493BF
:10015500A360010ECF54C025E060A840B8E493A386
:10016500FAE493A3F8E493A3C8C582C8CAC583CAB1
:10017500F0A3C8C582C8CAC583CADFE9DEE780BE69
:0102F9000004
:10000300E709F608DFFA8046E709F208DFFA803EDF
:1000130088828C83E709F0A3DFFA8032E309F608CC
:10002300DFFA8078E309F208DFFA807088828C8334
:10003300E309F0A3DFFA806489828A83E0A3F608E8
:10004300DFFA805889828A83E0A3F208DFFA804CC2
:1000530080D280FA80C680D4806980F28033801099
:1000630080A680EA809A80A880DA80E280CA803302
:1000730089828A83ECFAE493A3C8C582C8CCC5837A
:10008300CCF0A3C8C582C8CCC583CCDFE9DEE7804A
:100093000D89828A83E493A3F608DFF9ECFAA9F0C9
:1000A300EDFB2289828A83ECFAE0A3C8C582C8CC1F
:1000B300C583CCF0A3C8C582C8CCC583CCDFEADE38
:1000C300E880DB89828A83E493A3F208DFF980CC9A
:1000D30088F0EF60010E4E60C388F0ED2402B40493
:1000E3000050B9F582EB2402B4040050AF2323453A
:0600F3008223900053730C
:00000001FF
