:0300000002021FDA
:0C021F00787FE4F6D8FD75810E02010E18
:0C022B00446174612069733A0061610055
:03024100DFFE22BB
:1001E900AE07AF061EEF600C7FF51202417FF512D4
:0501F900024180EE222E
:10020F007580FFC2A5D2A6C2A700D2A7E580332270
:0C01CC007F381201D87F051201E97F384E
:1001D80012020F40FBC2A5C2A6D2A78F8000C2A7F9
:0101E80022F4
:1001FE0012020F40FBD2A5C2A6D2A78F8000C2A7C3
:01020E0022CD
:0A0237007F011201D87F050201E9E2
:10016500AE07ED7005EE24808003EE24C0FF12017A
:10017500D8120003FF600C1201FE740129F9E43A5C
:04018500FA80EE22EC
:0600A700E508FB7A000DE4
:0400AD008F098D0A20
:1000B100E4FC7D0AAF03AE0212001C7C007D0A1233
:1000C100001CED2430F50CE43CF50BAE02AF037CD3
:1000D100007D0A12001CED2430F50EE43CF50DE420
:1000E100FCFDE50A7006E50924808004E50924C0C9
:1000F1002DFF1201D8ED25E0240BF808E6FF1201CF
:0C010100FE0DBD00010CED64024C70D638
:01010D0022CF
:100189001201CC7F051201E91201CC7F081201D8B6
:100199007F011201D87F061201D81F1201E97F0CD5
:0301A9000201D878
:1001AC00E4FDFCC3ED9FEC9E5015E4FBFA0BBB0089
:0F01BC00010ABA03F8BBE8F50DBD00010C80E4A1
:0101CB002211
:10010E007508EA1201891202377BFF7A02792BE415
:10011E00FDFF1201657A0279347F081201657F07AF
:10012E001200A77BFF7A0279347D017F0A120165E6
:10013E00E508FB7A00E4FF1200AD7BFF7A0279340A
:10014E00E4FD7F0C1201657A0279347F0E1201658F
:07015E007F041200A780FEE0
:10000300BB010689828A83E0225002E722BBFE02FB
:09001300E32289828A83E493222E
:10001C00C2D5EC30E709B2D5E4C39DFDE49CFCEEFF
:10002C0030E715B2D5E4C39FFFE49EFE120052C325
:10003C00E49DFDE49CFC800312005230D507C3E420
:06004C009FFFE49EFE226E
:10005200BC000BBE0029EF8DF084FFADF022E4CC92
:10006200F875F008EF2FFFEE33FEEC33FCEE9DEC5B
:10007200984005FCEE9DFE0FD5F0E9E4CEFD22EDA1
:10008200F8F5F0EE8420D21CFEADF075F008EF2FEB
:10009200FFED33FD4007985006D5F0F222C398FDDC
:0500A2000FD5F0EA2279
:00000001FF
