:03000000020026D5
:0C002600787FE4F6D8FD75810C02006DB7
:07015A00313900323232009E
:03016100010C008E
:1001340053877F759850759CDC438E15D2AFD2AC33
:010144002298
:080152008F993099FDC299223A
:1000F6008B098A0A890BAB09AA0AA90B12011B6094
:1001060013050BE50B7002050A14F912011BFF1209
:05011600015280E2220D
:03016500AF0C22BA
:0300230002014592
:0D014500309809C2ACC29885990CD2AC323A
:10000300E4FDFCC3ED9FEC9E5015E4FBFA0BBB0033
:0F001300010ABA03F8BBE8F50DBD00010C80E44B
:0100220022BB
:1000B200E4F5081201342090327F0A7E0012000318
:1000C200209028E50870057508018003E4F50830E2
:1000D20090FDE50814600B0470117BFF7A01795AD8
:1000E20080067BFF7A01795D1200F67F647E001242
:0400F200000380C2C5
:100032000200B2E493A3F8E493A34003F68001F232
:1000420008DFF48029E493A3F85407240CC8C333CF
:10005200C4540F4420C8834004F456800146F6DF9E
:10006200E4800B0102040810204080900161E47ECC
:10007200019360BCA3FF543F30E509541FFEE49393
:10008200A360010ECF54C025E060A840B8E493A35A
:10009200FAE493A3F8E493A3C8C582C8CAC583CA85
:1000A200F0A3C8C582C8CAC583CADFE9DEE780BE3D
:01016400009A
:10011B00BB010689828A83E0225002E722BBFE02E2
:09012B00E32289828A83E4932215
:00000001FF
