:03000000020310E8
:0C031000787FE4F6D8FD75811E020357CB
:0C05A1002D0064697374616E63653A009C
:06000300041B00000000D8
:0305B700DFFE2242
:10056B00AE07AF061EEF600C7FF51205B77FF512D5
:05057B0005B780EE222F
:100591007580FFC2A5D2A6C2A700D2A7E5803322EB
:0C0516007F381205227F0512056B7F382C
:1005220012059140FBC2A5C2A6D2A78F8000C2A726
:0105320022A6
:1005800012059140FBD2A5C2A6D2A78F8000C2A7B8
:010590002248
:0A05AD007F011205227F0502056B95
:10048C00AE07ED7005EE24808003EE24C0FF12054C
:10049C002212000EFF600C120580740129F9E43A57
:0404AC00FA80EE22C2
:0801E1008F088D098A0A8B0BBF
:1001E900E4F50CF50DF50EF50FC3E50A648094806E
:1001F9005016C3E4950BF50BE4950AF50A7BFF7AD3
:100209000579A112048C0508AE0AAF0B7C277D1075
:100219001200397C007D0A120039ED2430F511E411
:100229003CF510AE0AAF0B7C037DE81200397C0067
:100239007D0A120039ED2430F513E43CF512AE0ABB
:10024900AF0B7C007D641200397C007D0A120039F5
:10025900ED2430F515E43CF514AE0AAF0B7C007DB6
:100269000A1200397C007D0A120039ED2430F51795
:10027900E43CF516AE0AAF0B7C007D0A120039ED9D
:100289002430F519E43CF518E50D25E02410F8E6CD
:10029900FE08E624D0FFEE34FF4F701DC3E50D9430
:1002A90004E50C94005012050DE50D7002050C05CE
:1002B9000FE50F70D3050E80CF7E00E50F2508F5F9
:1002C9000DEE350EF50CE5082405FFE433FEC3E514
:1002D9000D9FE50C9E502FE5097006E50D248080E1
:1002E90004E50D24C0C3950FFF120522C3E50D9542
:1002F9000825E02410F808E6FF120580050DE50D34
:0603090070C4050C80C069
:01030F0022CB
:1004B0001205167F0512056B1205167F081205221C
:1004C0007F011205227F061205221F12056B7F0C89
:0304D00002052200
:10055000EF1FAA0670011ED39400EA9400400BE43A
:0A056000FDEDC3947D50E90D80F716
:01056A00226E
:10053300758901758A66758CFCD2A9D2AFD294D223
:0D05430093E4F51AF51EF51DF51CF51B22BD
:10039C00120533D2947F017E00120550C294309323
:1003AC00FDD28C2093FDC28CAD8AAF8CEFFE7C000D
:1003BC00E42DFFEC3EAB07FA749A2BFB74033AFA6C
:1003CC00AF1A7E007C037DE8120027EF2BFFEE3A7C
:1003DC00FEE48F1E8E1DF51CF51B758A66758CFC54
:1003EC007F1EFE120550E47F7D7E0DFDFCAB1EAA28
:1003FC001DA91CA81B12006FE47B207A4EF9F81281
:10040C00041D8F1E8E1D8D1C8C1B7F647E000205AF
:01041C00508F
:03000B000204D319
:1004D300C0E0C0D0C28D758A66758CFC051AE51A1A
:1004E300B4120BC28C758A66758CFC751A00D0D059
:0304F300D0E03224
:1004F600E4FDFCC3ED9FEC9E5015E4FBFA0BBB003C
:0F050600010ABA03F8BBE8F50DBD00010C80E453
:0105150022C3
:100461001204B01205AD12039C1205AD7BFF7A0593
:1004710079A3E4FDFF12048CAA1DAB1E0D7F0412AB
:0B04810001E17F327E001204F680DBF8
:10031C00020461E493A3F8E493A34003F68001F292
:10032C0008DFF48029E493A3F85407240CC8C333E2
:10033C00C4540F4420C8834004F456800146F6DFB1
:10034C00E4800B0102040810204080900003E47E3E
:10035C00019360BCA3FF543F30E509541FFEE493A6
:10036C00A360010ECF54C025E060A840B8E493A36D
:10037C00FAE493A3F8E493A3C8C582C8CAC583CA98
:10038C00F0A3C8C582C8CAC583CADFE9DEE780BE50
:0100090000F6
:10000E00BB010689828A83E0225002E722BBFE02F0
:09001E00E32289828A83E4932223
:10002700EF8DF0A4A8F0CF8CF0A428CE8DF0A42EED
:02003700FE22A7
:10003900C2D5EC30E709B2D5E4C39DFDE49CFCEEE2
:1000490030E715B2D5E4C39FFFE49EFE1200BEC39C
:10005900E49DFDE49CFC80031200BE30D507C3E497
:060069009FFFE49EFE2251
:10006F00E88FF0A4CC8BF0A42CFCE98EF0A42CFC30
:10007F008AF0EDA42CFCEA8EF0A4CDA8F08BF0A4AE
:10008F002DCC3825F0FDE98FF0A42CCD35F0FCEB0D
:10009F008EF0A4FEA9F0EB8FF0A4CFC5F02ECD39D2
:0F00AF00FEE43CFCEAA42DCE35F0FDE43CFC223F
:10041D00C2D5E830E70FB2D5E4C39BFBE49AFAE40A
:10042D0099F9E498F8EC30E717B2D512045312019C
:10043D004FE4C39BFBE49AFAE499F9E498F880033E
:10044D0012014F30D50DE4C39FFFE49EFEE49DFDE8
:04045D00E49CFC22FD
:1000BE00BC000BBE0029EF8DF084FFADF022E4CC26
:1000CE00F875F008EF2FFFEE33FEEC33FCEE9DECEF
:1000DE00984005FCEE9DFE0FD5F0E9E4CEFD22ED35
:1000EE00F8F5F0EE8420D21CFEADF075F008EF2F7F
:1000FE00FFED33FD4007985006D5F0F222C398FD70
:05010E000FD5F0EA220C
:1001130075F008758200EF2FFFEE33FECD33CDCCA3
:1001230033CCC58233C5829BED9AEC99E582984026
:100133000CF582EE9BFEED9AFDEC99FC0FD5F0D603
:10014300E4CEFBE4CDFAE4CCF9A88222B800C1B92D
:100153000059BA002DEC8BF084CFCECDFCE5F0CB6B
:10016300F97818EF2FFFEE33FEED33FDEC33FCEBA4
:1001730033FB10D703994004EB99FB0FD8E5E4F95F
:10018300FA227818EF2FFFEE33FEED33FDEC33FC4C
:10019300C933C910D7059BE99A4007EC9BFCE99A40
:1001A300F90FD8E0E4C9FAE4CCFB2275F010EF2F85
:1001B300FFEE33FEED33FDCC33CCC833C810D70785
:1001C3009BEC9AE899400AED9BFDEC9AFCE899F8C0
:0E01D3000FD5F0DAE4CDFBE4CCFAE4C8F92253
:00000001FF
