:030000000200F902
:0C00F900787FE4F6D8FD758120020140FC
:0C030D000011002200330044080808081A
:1002F9000B14004C0C44040411223344580410001C
:03030900000000F1
:1002DF00AE071FEE6013E4FCFDC3ED9450EC9400E9
:0902EF0050EE0DBD00010C80F081
:0102F80022E3
:1002A3008F20E4FFE52030E704D2B78002C2B7D243
:0D02B300A1E52025E0F520C2A10FBF08E75E
:0102C000221B
:1002C100E4FFE52025E0F520D2A130A2054320017D
:0D02D10080035320FEC2A10FBF08E7AF203D
:0102DE0022FD
:10023100D2A0C2A1C2B6C2A3C2B5D2B4C2A4C2B333
:100241007F011202DFC2A0E4FE74142EF8E6FF1251
:0802510002A30EBE0BF3D2A0C4
:010259002282
:060185008F088D098B0AB2
:10018B00780C7C007D007BFF7A0379157E007F0461
:10019B001200D385080C85090D850A0E850B0FC23D
:1001AB00A4D2B37F011202DFC2A07F201202A3E40C
:1001BB00FE740C2EF8E6FF1202A30EBE04F3D2A0BF
:1001CB007F011202DFC2A07F221202A3E4FEEE2502
:1001DB00E0240DF582E43403F583740193FF1202DE
:1001EB00A30EBE04E9D2A0D2A47F011202DFC2A4E7
:0101FB0022E1
:1001FC007F011202DFC2B3D2A47F641202DFC2A459
:10020C00C2A07F011202DF7F241202A3E4FE1202BD
:10021C00C174102EF8A6070EBE04F3D2A07F0A12EA
:04022C0002DFD2A477
:0102300022AB
:09025A0012026312026312026336
:10026300E4FDFCC3ED9FEC9E5015E4FBFA0BBB00D1
:0F027300010ABA03F8BBE8F50DBD00010C80E4E9
:010282002259
:10028300D290120231E4F5101201FCE510B411F51D
:10029300C2907FE87E0312025AD29012025A80E57E
:10010500020283E493A3F8E493A34003F68001F28B
:1001150008DFF48029E493A3F85407240CC8C333FB
:10012500C4540F4420C8834004F456800146F6DFCA
:10013500E4800B01020408102040809002F9E47E5F
:10014500019360BCA3FF543F30E509541FFEE493BF
:10015500A360010ECF54C025E060A840B8E493A386
:10016500FAE493A3F8E493A3C8C582C8CAC583CAB1
:10017500F0A3C8C582C8CAC583CADFE9DEE780BE69
:01030C0000F0
:10000300E709F608DFFA8046E709F208DFFA803EDF
:1000130088828C83E709F0A3DFFA8032E309F608CC
:10002300DFFA8078E309F208DFFA807088828C8334
:10003300E309F0A3DFFA806489828A83E0A3F608E8
:10004300DFFA805889828A83E0A3F208DFFA804CC2
:1000530080D280FA80C680D4806980F28033801099
:1000630080A680EA809A80A880DA80E280CA803302
:1000730089828A83ECFAE493A3C8C582C8CCC5837A
:10008300CCF0A3C8C582C8CCC583CCDFE9DEE7804A
:100093000D89828A83E493A3F608DFF9ECFAA9F0C9
:1000A300EDFB2289828A83ECFAE0A3C8C582C8CC1F
:1000B300C583CCF0A3C8C582C8CCC583CCDFEADE38
:1000C300E880DB89828A83E493A3F208DFF980CC9A
:1000D30088F0EF60010E4E60C388F0ED2402B40493
:1000E3000050B9F582EB2402B4040050AF2323453A
:0600F3008223900053730C
:00000001FF
