:03000000020717DD
:0C071700787FE4F6D8FD758120020520F3
:10000300BDD3CFC2C0B4A3ACCED2C3C7D3D0C7EB8A
:1000130000CFF6D1F4CDACD1A700C9C1C1C1B5C7DA
:10002300B3A100A1A3A1A3A1A3A1A3000000000069
:1000330000000000000000000000000000000000BD
:1000430000000000000000000000000000000000AD
:10005300000000000000000000000000000000009D
:10006300000000D4000000000000000000000000B9
:100073000000050100000000000000000000000077
:1000830000001000800000000000000000000000DD
:10009300000020000000000000000000000000003D
:1000A300000040008000000000000000000000008D
:1000B30000200000000000000000000000000350CA
:1000C30000508001000000000000000000003C041C
:1000D30000A000000000000000000000000040013C
:1000E3000B150002000000000000000000004000AB
:1000F300880000068000000000000000000180006E
:100103006000000540000000000000000002000045
:1001130000000003900001B636000000000000005C
:1001230000000002400001FE3600000000008000D5
:1001330000000002200001B636000000000040006D
:1001430000000002A000036FFF0000000000200079
:100153000000001D000000002C0000000000000053
:1001630000000005C000000028000000000010008F
:100173000000000400000000380000000000000040
:100183000000000A80400000000000000000108012
:1001930000001F0847F800000000000000000120D5
:1001A30000003D130C0E00000000000000000810CA
:1001B300000027A018060000000000000000021045
:1001C30000003F8038C70000000000000000040367
:1001D300E00033903FC70000000000000000000370
:1001E300B00033107F8700000000000000000824E7
:1001F300F00C0E00FF1F00000000000000000007CD
:10020300F0C20000FE1F81B3E6D8F00000000846EC
:10021300710600083F1F01F667F9B00000000003F4
:10022300209800003FFF01B6C6D9800000000840B7
:10023300C02400043F1F037FFDBEFC00000000003C
:10024300000000021E1E0000000000000000080065
:10025300000000010E1C0000000000000000080068
:100263000000000087F00000000000000000000014
:100273000000000000000000000000000000040077
:10028300000000004000000000000000000000002B
:100293000000000020000000000000000000020039
:1002A300000000000000000000000000000001004A
:1002B30000000000100000000000000000000080AB
:1002C30000000000000000C000000000000000402B
:1002D30000000002080000C0000000000000004011
:1002E3000000000000000004000000000000000007
:1002F300000000018800018C0000000000000000E5
:10030300000000002000018E0000000000000040FB
:1003130000000001000001B606DB6C0000000000D5
:1003230000000000000003FF06DB6C00000000403B
:1003330000000001000000000000000000000000B9
:10034300000000000000000000000000000000208A
:100353000000000200000000000000000000001088
:100363000000000400000000000000000000000086
:100373000000000000000000000000000000000872
:100383000000001000000000000000000000000258
:10039300000000200000000000000000000000003A
:1003A30040000140000000000000000000000000C9
:1003B30094A468400000000000000000000000005A
:1003C300021900000000000000000000000000000F
:1003D3004200108000000000000000000000000048
:1003E30020000100000000000000000000000000E9
:1003F30014000A00000000000000000000000000DC
:1004030000000000000000000000000000000000E9
:1004130000000000000000000000000000000000D9
:0C042300000000000000000000000000CD
:070723008F8012072AD2A704
:05072A000000000022A8
:04069F007F017E0059
:0A06A300EF1FAC0670011E4C600F43
:0F06AD00E4F50CE50CC394FA50EC00050C80F456
:0106BC00221B
:10070400C2A5D2A6D2A712072AE580339200C2A7B7
:02071400A20041
:0107160022C0
:0406D600EB2480FF92
:1006DA0012070440FBC2A5C2A6C2A7000012072344
:0306EA00C2A72282
:10067F00EF70047F808013BF01047F90800CBF0256
:10068F00047F888005BF03027F98EF2DFF0206DAF3
:0606ED0014F91206BDFF26
:1006F30012070440FBD2A5C2A6C2A7120723C2A7B2
:0107030022D3
:040609007BFF7D02F4
:10060D008B088A09890A12067F8016AB08AA09A9E8
:10061D000A1206BD6010050AE50A700205091206E8
:07062D00ED12069F80E5229B
:1004BD007F341206DAE4FB1206D612069F7F8012F5
:1004CD0006DA12069FE4FDE4FF1206F30F7E00121A
:1004DD0006A30DBD10F10BBB20DDE4FB1206D612F9
:1004ED00069F7F881206DA12069FE4FDE4FF1206CE
:1004FD00F30F7E001206A30DBD10F10BBB20DD7FA7
:10050D00361206DA12069F7F301206DA7F017E0060
:03051D000206A330
:06042F008B088A09890A0E
:100435007F341206DA12069FE4FDED2480FF1206D2
:10044500DA12069F7F801206DA12069FE4F50BABDF
:1004550008050AE50AAA09700205091206ED120641
:100465009F050BE50BC3941040E50DBD20CCE4FDC5
:10047500ED2480FF1206DA12069F7F881206DA1233
:10048500069FE4F50BAB08050AE50AAA0970020503
:10049500091206ED12069F050BE50BC3941040E506
:1004A5000DBD20CC7F361206DA12069F7F3012066C
:0804B500DA7F017E000206A3BC
:10057E00AA077F341206DA12069FEDC39420ED50BF
:10058E000E2480FF1206DA12069FEA2480800C24C5
:10059E0060FF1206DA12069FEA2488FF1206DA12AC
:1005AE00069FAF031206F312069FAF0B1206F3124D
:1005BE00069F7F361206DA12069F7F301206DA7F0A
:0605CE00017E000206A3FD
:0705D4007FA07E0F12065FFD
:1005DB007F011206DA7F057E001206A31204BD7F8F
:1005EB00057E001206A37F301206DA7F057E00120D
:0E05FB0006A37F021206DA7F057E000206A329
:100634007F341206DA7F057E001206A37F3012068D
:10064400DA7F057E001206A37F0C1206DA7F057E90
:07065400001206A30205DB02
:04065B007F057E0099
:10065F00E4FDFCC3ED9FEC9E5015E4FBFA0BBB00D1
:0F066F00010ABA03F8BBE8F50DBD00010C80E4E9
:01067E002259
:100520001206341205DB7BFF7A007903E4FDFF122B
:10053000060D12065B7A0079147F01120609120675
:100540005B7A00791D7F0212060912065B7BFF7A37
:100550000079267D027F0312060D1205D4750BFF6C
:100560007BC07D3FE4FF12057E1205D47BFF7A003D
:0E057000792F12042F7FA07E0F12065F80A548
:1006BD00BB010689828A83E0225002E722BBFE023B
:0906CD00E32289828A83E493226E
:00000001FF
