:0300000002043CBB
:0C043C00787FE4F6D8FD7581200201DB1A
:1003A0002D0074696D653A323020202D20202D20DB
:0903B000200020203A20203A0030
:03046800DFFE2292
:1003D100AE07AF061EEF600C7FF51204687FF512C1
:0503E100046880EE221B
:10041D007580FFC2A5D2A6C2A700D2A7E580332260
:0C0369007F381203757F051203D17F3826
:1003750012041D40FBC2A5C2A6D2A78F8000C2A74A
:010385002255
:10040C0012041D40FBD2A5C2A6D2A78F8000C2A7A2
:01041C0022BD
:0A045E007F011203757F050203D130
:10030200AE07ED7005EE24808003EE24C0FF1203D9
:1003120075120137FF600C12040C740129F9E43ADA
:04032200FA80EE224D
:05000300FB7A007D0105
:080008008F088D098A0A8B0B99
:10001000E4F50CF50DF50EF50FC3E50A6480948048
:100020005016C3E4950BF50BE4950AF50A7BFF7AAD
:100030000379A01203020508AE0AAF0B7C277D10DE
:100040001201507C007D0A120150ED2430F511E4BC
:100050003CF510AE0AAF0B7C037DE81201507C002A
:100060007D0A120150ED2430F513E43CF512AE0A7E
:10007000AF0B7C007D641201507C007D0A120150A0
:10008000ED2430F515E43CF514AE0AAF0B7C007D91
:100090000A1201507C007D0A120150ED2430F51740
:1000A000E43CF516AE0AAF0B7C007D0A120150ED60
:1000B0002430F519E43CF518E50D25E02410F8E6A8
:1000C000FE08E624D0FFEE34FF4F701DC3E50D940B
:1000D00004E50C94005012050DE50D7002050C05A9
:1000E0000FE50F70D3050E80CF7E00E50F2508F5D4
:1000F0000DEE350EF50CE5082405FFE433FEC3E5EF
:100100000D9FE50C9E502FE5097006E50D248080BB
:1001100004E50D24C0C3950FFF120375C3E50D95CB
:100120000825E02410F808E6FF12040C050DE50D83
:0601300070C4050C80C044
:0101360022A6
:100326001203697F051203D11203697F0812037550
:100336007F011203757F061203751F1203D17F0C0E
:030346000203753A
:0603B900C292C290D29234
:1003BF00EFD2927F08A2E09291C290D290C313DF46
:0103CF00F439
:0103D000220A
:1003FA00D2927F08A29192E7D290C290C313DFF4FF
:01040A00FFF2
:01040B0022CE
:0F042D00AE051203B9AF061203BFD290C29222DE
:0A0448001203B91203FAD290C29217
:010452002287
:0303E600120448B6
:1003E900EFC4540FFEEF540FFDEE75F00AA42DFF74
:0103F90022E1
:10038600EF75F00A84C454F0FEEF75F00A84AFF0FE
:09039600EF540FFDEE54F02DFFB1
:01039F00223B
:0B045300C292C290E4FD7F8002042DE5
:1002C1007F811203E68F1E7F831203E68F207F85D5
:1002D1001204481203E98F1A7F871204481203E9B6
:1002E1008F1C7F891204481203E98F1B7F8D120432
:1002F100481203E98F1D7F8B1204481203E98F1FF7
:0103010022D9
:10025800AC07AA05120453AF0B1203868F0BAF0C21
:100268001203868F0CAF0D1203868F0DAF03120396
:1002780086AB07AF02120386AA07AF04120386AC47
:1002880007AF0E1203868F0EAD0B7F8412042DADBF
:100298000C7F8212042DAD0D7F8012042DAD037FDB
:1002A8008612042DAD027F8812042DAD047F8C12B6
:0902B800042DAD0E7F8A02042D15
:10034900E4FDFCC3ED9FEC9E5015E4FBFA0BBB00EA
:0F035900010ABA03F8BBE8F50DBD00010C80E402
:010368002272
:1001DB0012032612045E750B17750C3BE4F50D75B7
:1001EB000E047B1D7D027F0C12025812045E12025C
:1001FB00C17BFF7A0379A2E4FDFF1203027A037934
:10020B00B20D7F03120302E51DFB7A001D7F07125F
:10021B000008E51BFB7A00E4FD7F0A120008E51CD1
:10022B00FB7A00E4FD7F0D120008E51A7F03120034
:10023B0003E5207F06120003E51EFB7A007D017F9C
:0D024B00091200087F327E00120349809ED8
:10013700BB010689828A83E0225002E722BBFE02C6
:09014700E32289828A83E49322F9
:10015000C2D5EC30E709B2D5E4C39DFDE49CFCEECA
:1001600030E715B2D5E4C39FFFE49EFE120186C3BB
:10017000E49DFDE49CFC800312018630D507C3E4B6
:060180009FFFE49EFE2239
:10018600BC000BBE0029EF8DF084FFADF022E4CC5D
:10019600F875F008EF2FFFEE33FEEC33FCEE9DEC26
:1001A600984005FCEE9DFE0FD5F0E9E4CEFD22ED6C
:1001B600F8F5F0EE8420D21CFEADF075F008EF2FB6
:1001C600FFED33FD4007985006D5F0F222C398FDA7
:0501D6000FD5F0EA2244
:00000001FF
